{"abi":[{"type":"constructor","inputs":[{"name":"_oracleAddress","type":"address","internalType":"address"}],"stateMutability":"nonpayable"},{"type":"function","name":"allowance","inputs":[{"name":"owner","type":"address","internalType":"address"},{"name":"spender","type":"address","internalType":"address"}],"outputs":[{"name":"","type":"uint256","internalType":"uint256"}],"stateMutability":"view"},{"type":"function","name":"approve","inputs":[{"name":"spender","type":"address","internalType":"address"},{"name":"value","type":"uint256","internalType":"uint256"}],"outputs":[{"name":"","type":"bool","internalType":"bool"}],"stateMutability":"nonpayable"},{"type":"function","name":"balanceOf","inputs":[{"name":"account","type":"address","internalType":"address"}],"outputs":[{"name":"","type":"uint256","internalType":"uint256"}],"stateMutability":"view"},{"type":"function","name":"decimals","inputs":[],"outputs":[{"name":"","type":"uint8","internalType":"uint8"}],"stateMutability":"view"},{"type":"function","name":"getLatestGoldPrice","inputs":[],"outputs":[{"name":"","type":"int256","internalType":"int256"}],"stateMutability":"view"},{"type":"function","name":"goldPriceOracle","inputs":[],"outputs":[{"name":"","type":"address","internalType":"contract GoldPriceOracle"}],"stateMutability":"view"},{"type":"function","name":"mint","inputs":[{"name":"to","type":"address","internalType":"address"},{"name":"amount","type":"uint256","internalType":"uint256"}],"outputs":[],"stateMutability":"nonpayable"},{"type":"function","name":"name","inputs":[],"outputs":[{"name":"","type":"string","internalType":"string"}],"stateMutability":"view"},{"type":"function","name":"owner","inputs":[],"outputs":[{"name":"","type":"address","internalType":"address"}],"stateMutability":"view"},{"type":"function","name":"renounceOwnership","inputs":[],"outputs":[],"stateMutability":"nonpayable"},{"type":"function","name":"setOracleAddress","inputs":[{"name":"_newOracleAddress","type":"address","internalType":"address"}],"outputs":[],"stateMutability":"nonpayable"},{"type":"function","name":"symbol","inputs":[],"outputs":[{"name":"","type":"string","internalType":"string"}],"stateMutability":"view"},{"type":"function","name":"totalSupply","inputs":[],"outputs":[{"name":"","type":"uint256","internalType":"uint256"}],"stateMutability":"view"},{"type":"function","name":"transfer","inputs":[{"name":"to","type":"address","internalType":"address"},{"name":"value","type":"uint256","internalType":"uint256"}],"outputs":[{"name":"","type":"bool","internalType":"bool"}],"stateMutability":"nonpayable"},{"type":"function","name":"transferFrom","inputs":[{"name":"from","type":"address","internalType":"address"},{"name":"to","type":"address","internalType":"address"},{"name":"value","type":"uint256","internalType":"uint256"}],"outputs":[{"name":"","type":"bool","internalType":"bool"}],"stateMutability":"nonpayable"},{"type":"function","name":"transferOwnership","inputs":[{"name":"newOwner","type":"address","internalType":"address"}],"outputs":[],"stateMutability":"nonpayable"},{"type":"function","name":"withdraw","inputs":[{"name":"amount","type":"uint256","internalType":"uint256"}],"outputs":[],"stateMutability":"nonpayable"},{"type":"event","name":"Approval","inputs":[{"name":"owner","type":"address","indexed":true,"internalType":"address"},{"name":"spender","type":"address","indexed":true,"internalType":"address"},{"name":"value","type":"uint256","indexed":false,"internalType":"uint256"}],"anonymous":false},{"type":"event","name":"OracleAddressUpdated","inputs":[{"name":"newOracleAddress","type":"address","indexed":true,"internalType":"address"}],"anonymous":false},{"type":"event","name":"OwnershipTransferred","inputs":[{"name":"previousOwner","type":"address","indexed":true,"internalType":"address"},{"name":"newOwner","type":"address","indexed":true,"internalType":"address"}],"anonymous":false},{"type":"event","name":"Transfer","inputs":[{"name":"from","type":"address","indexed":true,"internalType":"address"},{"name":"to","type":"address","indexed":true,"internalType":"address"},{"name":"value","type":"uint256","indexed":false,"internalType":"uint256"}],"anonymous":false},{"type":"error","name":"ERC20InsufficientAllowance","inputs":[{"name":"spender","type":"address","internalType":"address"},{"name":"allowance","type":"uint256","internalType":"uint256"},{"name":"needed","type":"uint256","internalType":"uint256"}]},{"type":"error","name":"ERC20InsufficientBalance","inputs":[{"name":"sender","type":"address","internalType":"address"},{"name":"balance","type":"uint256","internalType":"uint256"},{"name":"needed","type":"uint256","internalType":"uint256"}]},{"type":"error","name":"ERC20InvalidApprover","inputs":[{"name":"approver","type":"address","internalType":"address"}]},{"type":"error","name":"ERC20InvalidReceiver","inputs":[{"name":"receiver","type":"address","internalType":"address"}]},{"type":"error","name":"ERC20InvalidSender","inputs":[{"name":"sender","type":"address","internalType":"address"}]},{"type":"error","name":"ERC20InvalidSpender","inputs":[{"name":"spender","type":"address","internalType":"address"}]},{"type":"error","name":"OwnableInvalidOwner","inputs":[{"name":"owner","type":"address","internalType":"address"}]},{"type":"error","name":"OwnableUnauthorizedAccount","inputs":[{"name":"account","type":"address","internalType":"address"}]}],"bytecode":{"object":"0x608060405234801561000f575f5ffd5b50604051611d92380380611d9283398181016040528101906100319190610315565b336040518060400160405280600a81526020017f476f6c6420546f6b656e000000000000000000000000000000000000000000008152506040518060400160405280600381526020017f474c44000000000000000000000000000000000000000000000000000000000081525081600390816100ad919061057d565b5080600490816100bd919061057d565b5050505f73ffffffffffffffffffffffffffffffffffffffff168173ffffffffffffffffffffffffffffffffffffffff1603610130575f6040517f1e4fbdf7000000000000000000000000000000000000000000000000000000008152600401610127919061065b565b60405180910390fd5b61013f816101f460201b60201c565b505f73ffffffffffffffffffffffffffffffffffffffff168173ffffffffffffffffffffffffffffffffffffffff16036101ae576040517f08c379a00000000000000000000000000000000000000000000000000000000081526004016101a5906106f4565b60405180910390fd5b8060065f6101000a81548173ffffffffffffffffffffffffffffffffffffffff021916908373ffffffffffffffffffffffffffffffffffffffff16021790555050610712565b5f60055f9054906101000a900473ffffffffffffffffffffffffffffffffffffffff1690508160055f6101000a81548173ffffffffffffffffffffffffffffffffffffffff021916908373ffffffffffffffffffffffffffffffffffffffff1602179055508173ffffffffffffffffffffffffffffffffffffffff168173ffffffffffffffffffffffffffffffffffffffff167f8be0079c531659141344cd1fd0a4f28419497f9722a3daafe3b4186f6b6457e060405160405180910390a35050565b5f5ffd5b5f73ffffffffffffffffffffffffffffffffffffffff82169050919050565b5f6102e4826102bb565b9050919050565b6102f4816102da565b81146102fe575f5ffd5b50565b5f8151905061030f816102eb565b92915050565b5f6020828403121561032a576103296102b7565b5b5f61033784828501610301565b91505092915050565b5f81519050919050565b7f4e487b71000000000000000000000000000000000000000000000000000000005f52604160045260245ffd5b7f4e487b71000000000000000000000000000000000000000000000000000000005f52602260045260245ffd5b5f60028204905060018216806103bb57607f821691505b6020821081036103ce576103cd610377565b5b50919050565b5f819050815f5260205f209050919050565b5f6020601f8301049050919050565b5f82821b905092915050565b5f600883026104307fffffffffffffffffffffffffffffffffffffffffffffffffffffffffffffffff826103f5565b61043a86836103f5565b95508019841693508086168417925050509392505050565b5f819050919050565b5f819050919050565b5f61047e61047961047484610452565b61045b565b610452565b9050919050565b5f819050919050565b61049783610464565b6104ab6104a382610485565b848454610401565b825550505050565b5f5f905090565b6104c26104b3565b6104cd81848461048e565b505050565b5b818110156104f0576104e55f826104ba565b6001810190506104d3565b5050565b601f82111561053557610506816103d4565b61050f846103e6565b8101602085101561051e578190505b61053261052a856103e6565b8301826104d2565b50505b505050565b5f82821c905092915050565b5f6105555f198460080261053a565b1980831691505092915050565b5f61056d8383610546565b9150826002028217905092915050565b61058682610340565b67ffffffffffffffff81111561059f5761059e61034a565b5b6105a982546103a4565b6105b48282856104f4565b5f60209050601f8311600181146105e5575f84156105d3578287015190505b6105dd8582610562565b865550610644565b601f1984166105f3866103d4565b5f5b8281101561061a578489015182556001820191506020850194506020810190506105f5565b868310156106375784890151610633601f891682610546565b8355505b6001600288020188555050505b505050505050565b610655816102da565b82525050565b5f60208201905061066e5f83018461064c565b92915050565b5f82825260208201905092915050565b7f476f6c64546f6b656e3a20496e76616c6964206f7261636c65206164647265735f8201527f7300000000000000000000000000000000000000000000000000000000000000602082015250565b5f6106de602183610674565b91506106e982610684565b604082019050919050565b5f6020820190508181035f83015261070b816106d2565b9050919050565b6116738061071f5f395ff3fe608060405234801561000f575f5ffd5b5060043610610109575f3560e01c806340c10f19116100a05780638da5cb5b1161006f5780638da5cb5b1461029157806395d89b41146102af578063a9059cbb146102cd578063dd62ed3e146102fd578063f2fde38b1461032d57610109565b806340c10f191461021f5780634c69c00f1461023b57806370a0823114610257578063715018a61461028757610109565b80632e1a7d4d116100dc5780632e1a7d4d146101a95780632f7e177e146101c5578063313ce567146101e357806338b68a921461020157610109565b806306fdde031461010d578063095ea7b31461012b57806318160ddd1461015b57806323b872dd14610179575b5f5ffd5b610115610349565b60405161012291906110d1565b60405180910390f35b61014560048036038101906101409190611182565b6103d9565b60405161015291906111da565b60405180910390f35b6101636103fb565b6040516101709190611202565b60405180910390f35b610193600480360381019061018e919061121b565b610404565b6040516101a091906111da565b60405180910390f35b6101c360048036038101906101be919061126b565b610432565b005b6101cd61048a565b6040516101da91906112ae565b60405180910390f35b6101eb61051e565b6040516101f891906112e2565b60405180910390f35b610209610526565b6040516102169190611356565b60405180910390f35b61023960048036038101906102349190611182565b61054b565b005b6102556004803603810190610250919061136f565b610561565b005b610271600480360381019061026c919061136f565b61065d565b60405161027e9190611202565b60405180910390f35b61028f6106a2565b005b6102996106b5565b6040516102a691906113a9565b60405180910390f35b6102b76106dd565b6040516102c491906110d1565b60405180910390f35b6102e760048036038101906102e29190611182565b61076d565b6040516102f491906111da565b60405180910390f35b610317600480360381019061031291906113c2565b61078f565b6040516103249190611202565b60405180910390f35b6103476004803603810190610342919061136f565b610811565b005b6060600380546103589061142d565b80601f01602080910402602001604051908101604052809291908181526020018280546103849061142d565b80156103cf5780601f106103a6576101008083540402835291602001916103cf565b820191905f5260205f20905b8154815290600101906020018083116103b257829003601f168201915b5050505050905090565b5f5f6103e3610895565b90506103f081858561089c565b600191505092915050565b5f600254905090565b5f5f61040e610895565b905061041b8582856108ae565b610426858585610941565b60019150509392505050565b61043b3361065d565b81111561047d576040517f08c379a0000000000000000000000000000000000000000000000000000000008152600401610474906114a7565b60405180910390fd5b6104873382610a31565b50565b5f60065f9054906101000a900473ffffffffffffffffffffffffffffffffffffffff1673ffffffffffffffffffffffffffffffffffffffff16638e15f4736040518163ffffffff1660e01b8152600401602060405180830381865afa1580156104f5573d5f5f3e3d5ffd5b505050506040513d601f19601f8201168201806040525081019061051991906114ef565b905090565b5f6012905090565b60065f9054906101000a900473ffffffffffffffffffffffffffffffffffffffff1681565b610553610ab0565b61055d8282610b37565b5050565b610569610ab0565b5f73ffffffffffffffffffffffffffffffffffffffff168173ffffffffffffffffffffffffffffffffffffffff16036105d7576040517f08c379a00000000000000000000000000000000000000000000000000000000081526004016105ce9061158a565b60405180910390fd5b8060065f6101000a81548173ffffffffffffffffffffffffffffffffffffffff021916908373ffffffffffffffffffffffffffffffffffffffff1602179055508073ffffffffffffffffffffffffffffffffffffffff167f107a9fafffb7ac890f780879e423760c9ffea8dcee8045681f40f542aede2cb860405160405180910390a250565b5f5f5f8373ffffffffffffffffffffffffffffffffffffffff1673ffffffffffffffffffffffffffffffffffffffff1681526020019081526020015f20549050919050565b6106aa610ab0565b6106b35f610bb6565b565b5f60055f9054906101000a900473ffffffffffffffffffffffffffffffffffffffff16905090565b6060600480546106ec9061142d565b80601f01602080910402602001604051908101604052809291908181526020018280546107189061142d565b80156107635780601f1061073a57610100808354040283529160200191610763565b820191905f5260205f20905b81548152906001019060200180831161074657829003601f168201915b5050505050905090565b5f5f610777610895565b9050610784818585610941565b600191505092915050565b5f60015f8473ffffffffffffffffffffffffffffffffffffffff1673ffffffffffffffffffffffffffffffffffffffff1681526020019081526020015f205f8373ffffffffffffffffffffffffffffffffffffffff1673ffffffffffffffffffffffffffffffffffffffff1681526020019081526020015f2054905092915050565b610819610ab0565b5f73ffffffffffffffffffffffffffffffffffffffff168173ffffffffffffffffffffffffffffffffffffffff1603610889575f6040517f1e4fbdf700000000000000000000000000000000000000000000000000000000815260040161088091906113a9565b60405180910390fd5b61089281610bb6565b50565b5f33905090565b6108a98383836001610c79565b505050565b5f6108b9848461078f565b90507fffffffffffffffffffffffffffffffffffffffffffffffffffffffffffffffff81101561093b578181101561092c578281836040517ffb8f41b2000000000000000000000000000000000000000000000000000000008152600401610923939291906115a8565b60405180910390fd5b61093a84848484035f610c79565b5b50505050565b5f73ffffffffffffffffffffffffffffffffffffffff168373ffffffffffffffffffffffffffffffffffffffff16036109b1575f6040517f96c6fd1e0000000000000000000000000000000000000000000000000000000081526004016109a891906113a9565b60405180910390fd5b5f73ffffffffffffffffffffffffffffffffffffffff168273ffffffffffffffffffffffffffffffffffffffff1603610a21575f6040517fec442f05000000000000000000000000000000000000000000000000000000008152600401610a1891906113a9565b60405180910390fd5b610a2c838383610e48565b505050565b5f73ffffffffffffffffffffffffffffffffffffffff168273ffffffffffffffffffffffffffffffffffffffff1603610aa1575f6040517f96c6fd1e000000000000000000000000000000000000000000000000000000008152600401610a9891906113a9565b60405180910390fd5b610aac825f83610e48565b5050565b610ab8610895565b73ffffffffffffffffffffffffffffffffffffffff16610ad66106b5565b73ffffffffffffffffffffffffffffffffffffffff1614610b3557610af9610895565b6040517f118cdaa7000000000000000000000000000000000000000000000000000000008152600401610b2c91906113a9565b60405180910390fd5b565b5f73ffffffffffffffffffffffffffffffffffffffff168273ffffffffffffffffffffffffffffffffffffffff1603610ba7575f6040517fec442f05000000000000000000000000000000000000000000000000000000008152600401610b9e91906113a9565b60405180910390fd5b610bb25f8383610e48565b5050565b5f60055f9054906101000a900473ffffffffffffffffffffffffffffffffffffffff1690508160055f6101000a81548173ffffffffffffffffffffffffffffffffffffffff021916908373ffffffffffffffffffffffffffffffffffffffff1602179055508173ffffffffffffffffffffffffffffffffffffffff168173ffffffffffffffffffffffffffffffffffffffff167f8be0079c531659141344cd1fd0a4f28419497f9722a3daafe3b4186f6b6457e060405160405180910390a35050565b5f73ffffffffffffffffffffffffffffffffffffffff168473ffffffffffffffffffffffffffffffffffffffff1603610ce9575f6040517fe602df05000000000000000000000000000000000000000000000000000000008152600401610ce091906113a9565b60405180910390fd5b5f73ffffffffffffffffffffffffffffffffffffffff168373ffffffffffffffffffffffffffffffffffffffff1603610d59575f6040517f94280d62000000000000000000000000000000000000000000000000000000008152600401610d5091906113a9565b60405180910390fd5b8160015f8673ffffffffffffffffffffffffffffffffffffffff1673ffffffffffffffffffffffffffffffffffffffff1681526020019081526020015f205f8573ffffffffffffffffffffffffffffffffffffffff1673ffffffffffffffffffffffffffffffffffffffff1681526020019081526020015f20819055508015610e42578273ffffffffffffffffffffffffffffffffffffffff168473ffffffffffffffffffffffffffffffffffffffff167f8c5be1e5ebec7d5bd14f71427d1e84f3dd0314c0f7b2291e5b200ac8c7c3b92584604051610e399190611202565b60405180910390a35b50505050565b5f73ffffffffffffffffffffffffffffffffffffffff168373ffffffffffffffffffffffffffffffffffffffff1603610e98578060025f828254610e8c919061160a565b92505081905550610f66565b5f5f5f8573ffffffffffffffffffffffffffffffffffffffff1673ffffffffffffffffffffffffffffffffffffffff1681526020019081526020015f2054905081811015610f21578381836040517fe450d38c000000000000000000000000000000000000000000000000000000008152600401610f18939291906115a8565b60405180910390fd5b8181035f5f8673ffffffffffffffffffffffffffffffffffffffff1673ffffffffffffffffffffffffffffffffffffffff1681526020019081526020015f2081905550505b5f73ffffffffffffffffffffffffffffffffffffffff168273ffffffffffffffffffffffffffffffffffffffff1603610fad578060025f8282540392505081905550610ff7565b805f5f8473ffffffffffffffffffffffffffffffffffffffff1673ffffffffffffffffffffffffffffffffffffffff1681526020019081526020015f205f82825401925050819055505b8173ffffffffffffffffffffffffffffffffffffffff168373ffffffffffffffffffffffffffffffffffffffff167fddf252ad1be2c89b69c2b068fc378daa952ba7f163c4a11628f55a4df523b3ef836040516110549190611202565b60405180910390a3505050565b5f81519050919050565b5f82825260208201905092915050565b8281835e5f83830152505050565b5f601f19601f8301169050919050565b5f6110a382611061565b6110ad818561106b565b93506110bd81856020860161107b565b6110c681611089565b840191505092915050565b5f6020820190508181035f8301526110e98184611099565b905092915050565b5f5ffd5b5f73ffffffffffffffffffffffffffffffffffffffff82169050919050565b5f61111e826110f5565b9050919050565b61112e81611114565b8114611138575f5ffd5b50565b5f8135905061114981611125565b92915050565b5f819050919050565b6111618161114f565b811461116b575f5ffd5b50565b5f8135905061117c81611158565b92915050565b5f5f60408385031215611198576111976110f1565b5b5f6111a58582860161113b565b92505060206111b68582860161116e565b9150509250929050565b5f8115159050919050565b6111d4816111c0565b82525050565b5f6020820190506111ed5f8301846111cb565b92915050565b6111fc8161114f565b82525050565b5f6020820190506112155f8301846111f3565b92915050565b5f5f5f60608486031215611232576112316110f1565b5b5f61123f8682870161113b565b93505060206112508682870161113b565b92505060406112618682870161116e565b9150509250925092565b5f602082840312156112805761127f6110f1565b5b5f61128d8482850161116e565b91505092915050565b5f819050919050565b6112a881611296565b82525050565b5f6020820190506112c15f83018461129f565b92915050565b5f60ff82169050919050565b6112dc816112c7565b82525050565b5f6020820190506112f55f8301846112d3565b92915050565b5f819050919050565b5f61131e611319611314846110f5565b6112fb565b6110f5565b9050919050565b5f61132f82611304565b9050919050565b5f61134082611325565b9050919050565b61135081611336565b82525050565b5f6020820190506113695f830184611347565b92915050565b5f60208284031215611384576113836110f1565b5b5f6113918482850161113b565b91505092915050565b6113a381611114565b82525050565b5f6020820190506113bc5f83018461139a565b92915050565b5f5f604083850312156113d8576113d76110f1565b5b5f6113e58582860161113b565b92505060206113f68582860161113b565b9150509250929050565b7f4e487b71000000000000000000000000000000000000000000000000000000005f52602260045260245ffd5b5f600282049050600182168061144457607f821691505b60208210810361145757611456611400565b5b50919050565b7f476f6c64546f6b656e3a20496e73756666696369656e742062616c616e6365005f82015250565b5f611491601f8361106b565b915061149c8261145d565b602082019050919050565b5f6020820190508181035f8301526114be81611485565b9050919050565b6114ce81611296565b81146114d8575f5ffd5b50565b5f815190506114e9816114c5565b92915050565b5f60208284031215611504576115036110f1565b5b5f611511848285016114db565b91505092915050565b7f476f6c64546f6b656e3a20496e76616c6964206e6577206f7261636c652061645f8201527f6472657373000000000000000000000000000000000000000000000000000000602082015250565b5f61157460258361106b565b915061157f8261151a565b604082019050919050565b5f6020820190508181035f8301526115a181611568565b9050919050565b5f6060820190506115bb5f83018661139a565b6115c860208301856111f3565b6115d560408301846111f3565b949350505050565b7f4e487b71000000000000000000000000000000000000000000000000000000005f52601160045260245ffd5b5f6116148261114f565b915061161f8361114f565b9250828201905080821115611637576116366115dd565b5b9291505056fea264697066735822122081e1e0f63ebf16441eb9250b7ba0381e304da5eb2dea6cf17097e2343664839f64736f6c634300081c0033","linkReferences":{}},"methodIdentifiers":{"allowance(address,address)":"dd62ed3e","approve(address,uint256)":"095ea7b3","balanceOf(address)":"70a08231","decimals()":"313ce567","getLatestGoldPrice()":"2f7e177e","goldPriceOracle()":"38b68a92","mint(address,uint256)":"40c10f19","name()":"06fdde03","owner()":"8da5cb5b","renounceOwnership()":"715018a6","setOracleAddress(address)":"4c69c00f","symbol()":"95d89b41","totalSupply()":"18160ddd","transfer(address,uint256)":"a9059cbb","transferFrom(address,address,uint256)":"23b872dd","transferOwnership(address)":"f2fde38b","withdraw(uint256)":"2e1a7d4d"},"id":24}