{"abi":[{"type":"constructor","inputs":[{"name":"_priceFeedAddress","type":"address","internalType":"address"}],"stateMutability":"nonpayable"},{"type":"function","name":"getLatestPrice","inputs":[],"outputs":[{"name":"","type":"int256","internalType":"int256"}],"stateMutability":"view"},{"type":"function","name":"owner","inputs":[],"outputs":[{"name":"","type":"address","internalType":"address"}],"stateMutability":"view"},{"type":"function","name":"priceFeed","inputs":[],"outputs":[{"name":"","type":"address","internalType":"contract AggregatorV3Interface"}],"stateMutability":"view"},{"type":"function","name":"renounceOwnership","inputs":[],"outputs":[],"stateMutability":"nonpayable"},{"type":"function","name":"setPriceFeed","inputs":[{"name":"_newPriceFeedAddress","type":"address","internalType":"address"}],"outputs":[],"stateMutability":"nonpayable"},{"type":"function","name":"transferOwnership","inputs":[{"name":"newOwner","type":"address","internalType":"address"}],"outputs":[],"stateMutability":"nonpayable"},{"type":"event","name":"OwnershipTransferred","inputs":[{"name":"previousOwner","type":"address","indexed":true,"internalType":"address"},{"name":"newOwner","type":"address","indexed":true,"internalType":"address"}],"anonymous":false},{"type":"event","name":"PriceFeedUpdated","inputs":[{"name":"newFeedAddress","type":"address","indexed":true,"internalType":"address"}],"anonymous":false},{"type":"error","name":"OwnableInvalidOwner","inputs":[{"name":"owner","type":"address","internalType":"address"}]},{"type":"error","name":"OwnableUnauthorizedAccount","inputs":[{"name":"account","type":"address","internalType":"address"}]}],"bytecode":{"object":"0x608060405234801561000f575f5ffd5b50604051610b8b380380610b8b83398181016040528101906100319190610285565b335f73ffffffffffffffffffffffffffffffffffffffff168173ffffffffffffffffffffffffffffffffffffffff16036100a2575f6040517f1e4fbdf700000000000000000000000000000000000000000000000000000000815260040161009991906102bf565b60405180910390fd5b6100b18161016660201b60201c565b505f73ffffffffffffffffffffffffffffffffffffffff168173ffffffffffffffffffffffffffffffffffffffff1603610120576040517f08c379a000000000000000000000000000000000000000000000000000000000815260040161011790610358565b60405180910390fd5b8060015f6101000a81548173ffffffffffffffffffffffffffffffffffffffff021916908373ffffffffffffffffffffffffffffffffffffffff16021790555050610376565b5f5f5f9054906101000a900473ffffffffffffffffffffffffffffffffffffffff169050815f5f6101000a81548173ffffffffffffffffffffffffffffffffffffffff021916908373ffffffffffffffffffffffffffffffffffffffff1602179055508173ffffffffffffffffffffffffffffffffffffffff168173ffffffffffffffffffffffffffffffffffffffff167f8be0079c531659141344cd1fd0a4f28419497f9722a3daafe3b4186f6b6457e060405160405180910390a35050565b5f5ffd5b5f73ffffffffffffffffffffffffffffffffffffffff82169050919050565b5f6102548261022b565b9050919050565b6102648161024a565b811461026e575f5ffd5b50565b5f8151905061027f8161025b565b92915050565b5f6020828403121561029a57610299610227565b5b5f6102a784828501610271565b91505092915050565b6102b98161024a565b82525050565b5f6020820190506102d25f8301846102b0565b92915050565b5f82825260208201905092915050565b7f476f6c6450726963654f7261636c653a20496e76616c696420707269636520665f8201527f6565642061646472657373000000000000000000000000000000000000000000602082015250565b5f610342602b836102d8565b915061034d826102e8565b604082019050919050565b5f6020820190508181035f83015261036f81610336565b9050919050565b610808806103835f395ff3fe608060405234801561000f575f5ffd5b5060043610610060575f3560e01c8063715018a614610064578063724e78da1461006e578063741bef1a1461008a5780638da5cb5b146100a85780638e15f473146100c6578063f2fde38b146100e4575b5f5ffd5b61006c610100565b005b61008860048036038101906100839190610529565b610113565b005b61009261020f565b60405161009f91906105af565b60405180910390f35b6100b0610234565b6040516100bd91906105d7565b60405180910390f35b6100ce61025b565b6040516100db9190610608565b60405180910390f35b6100fe60048036038101906100f99190610529565b6102f8565b005b61010861037c565b6101115f610403565b565b61011b61037c565b5f73ffffffffffffffffffffffffffffffffffffffff168173ffffffffffffffffffffffffffffffffffffffff1603610189576040517f08c379a0000000000000000000000000000000000000000000000000000000008152600401610180906106a1565b60405180910390fd5b8060015f6101000a81548173ffffffffffffffffffffffffffffffffffffffff021916908373ffffffffffffffffffffffffffffffffffffffff1602179055508073ffffffffffffffffffffffffffffffffffffffff167fe5b20b8497e4f3e2435ef9c20e2e26b47497ee13745ce1c681ad6640653119e660405160405180910390a250565b60015f9054906101000a900473ffffffffffffffffffffffffffffffffffffffff1681565b5f5f5f9054906101000a900473ffffffffffffffffffffffffffffffffffffffff16905090565b5f5f60015f9054906101000a900473ffffffffffffffffffffffffffffffffffffffff1673ffffffffffffffffffffffffffffffffffffffff1663feaf968c6040518163ffffffff1660e01b815260040160a060405180830381865afa1580156102c7573d5f5f3e3d5ffd5b505050506040513d601f19601f820116820180604052508101906102eb919061075b565b5050509150508091505090565b61030061037c565b5f73ffffffffffffffffffffffffffffffffffffffff168173ffffffffffffffffffffffffffffffffffffffff1603610370575f6040517f1e4fbdf700000000000000000000000000000000000000000000000000000000815260040161036791906105d7565b60405180910390fd5b61037981610403565b50565b6103846104c4565b73ffffffffffffffffffffffffffffffffffffffff166103a2610234565b73ffffffffffffffffffffffffffffffffffffffff1614610401576103c56104c4565b6040517f118cdaa70000000000000000000000000000000000000000000000000000000081526004016103f891906105d7565b60405180910390fd5b565b5f5f5f9054906101000a900473ffffffffffffffffffffffffffffffffffffffff169050815f5f6101000a81548173ffffffffffffffffffffffffffffffffffffffff021916908373ffffffffffffffffffffffffffffffffffffffff1602179055508173ffffffffffffffffffffffffffffffffffffffff168173ffffffffffffffffffffffffffffffffffffffff167f8be0079c531659141344cd1fd0a4f28419497f9722a3daafe3b4186f6b6457e060405160405180910390a35050565b5f33905090565b5f5ffd5b5f73ffffffffffffffffffffffffffffffffffffffff82169050919050565b5f6104f8826104cf565b9050919050565b610508816104ee565b8114610512575f5ffd5b50565b5f81359050610523816104ff565b92915050565b5f6020828403121561053e5761053d6104cb565b5b5f61054b84828501610515565b91505092915050565b5f819050919050565b5f61057761057261056d846104cf565b610554565b6104cf565b9050919050565b5f6105888261055d565b9050919050565b5f6105998261057e565b9050919050565b6105a98161058f565b82525050565b5f6020820190506105c25f8301846105a0565b92915050565b6105d1816104ee565b82525050565b5f6020820190506105ea5f8301846105c8565b92915050565b5f819050919050565b610602816105f0565b82525050565b5f60208201905061061b5f8301846105f9565b92915050565b5f82825260208201905092915050565b7f476f6c6450726963654f7261636c653a20496e76616c6964206e6577207072695f8201527f6365206665656420616464726573730000000000000000000000000000000000602082015250565b5f61068b602f83610621565b915061069682610631565b604082019050919050565b5f6020820190508181035f8301526106b88161067f565b9050919050565b5f69ffffffffffffffffffff82169050919050565b6106dd816106bf565b81146106e7575f5ffd5b50565b5f815190506106f8816106d4565b92915050565b610707816105f0565b8114610711575f5ffd5b50565b5f81519050610722816106fe565b92915050565b5f819050919050565b61073a81610728565b8114610744575f5ffd5b50565b5f8151905061075581610731565b92915050565b5f5f5f5f5f60a08688031215610774576107736104cb565b5b5f610781888289016106ea565b955050602061079288828901610714565b94505060406107a388828901610747565b93505060606107b488828901610747565b92505060806107c5888289016106ea565b915050929550929590935056fea2646970667358221220a5bc558d3a85517d99db75763f30a32df05b0e4ba2d14929fabf1ce5eed013c064736f6c634300081c0033","linkReferences":{}},"methodIdentifiers":{"getLatestPrice()":"8e15f473","owner()":"8da5cb5b","priceFeed()":"741bef1a","renounceOwnership()":"715018a6","setPriceFeed(address)":"724e78da","transferOwnership(address)":"f2fde38b"},"id":28}