{"abi":[{"type":"constructor","inputs":[{"name":"_oracleAddress","type":"address","internalType":"address"}],"stateMutability":"nonpayable"},{"type":"function","name":"allowance","inputs":[{"name":"owner","type":"address","internalType":"address"},{"name":"spender","type":"address","internalType":"address"}],"outputs":[{"name":"","type":"uint256","internalType":"uint256"}],"stateMutability":"view"},{"type":"function","name":"approve","inputs":[{"name":"spender","type":"address","internalType":"address"},{"name":"value","type":"uint256","internalType":"uint256"}],"outputs":[{"name":"","type":"bool","internalType":"bool"}],"stateMutability":"nonpayable"},{"type":"function","name":"balanceOf","inputs":[{"name":"account","type":"address","internalType":"address"}],"outputs":[{"name":"","type":"uint256","internalType":"uint256"}],"stateMutability":"view"},{"type":"function","name":"decimals","inputs":[],"outputs":[{"name":"","type":"uint8","internalType":"uint8"}],"stateMutability":"view"},{"type":"function","name":"getLatestGoldPrice","inputs":[],"outputs":[{"name":"","type":"int256","internalType":"int256"}],"stateMutability":"view"},{"type":"function","name":"goldPriceOracle","inputs":[],"outputs":[{"name":"","type":"address","internalType":"contract GoldPriceOracle"}],"stateMutability":"view"},{"type":"function","name":"mint","inputs":[{"name":"to","type":"address","internalType":"address"},{"name":"amount","type":"uint256","internalType":"uint256"}],"outputs":[],"stateMutability":"nonpayable"},{"type":"function","name":"name","inputs":[],"outputs":[{"name":"","type":"string","internalType":"string"}],"stateMutability":"view"},{"type":"function","name":"owner","inputs":[],"outputs":[{"name":"","type":"address","internalType":"address"}],"stateMutability":"view"},{"type":"function","name":"renounceOwnership","inputs":[],"outputs":[],"stateMutability":"nonpayable"},{"type":"function","name":"setOracleAddress","inputs":[{"name":"_newOracleAddress","type":"address","internalType":"address"}],"outputs":[],"stateMutability":"nonpayable"},{"type":"function","name":"symbol","inputs":[],"outputs":[{"name":"","type":"string","internalType":"string"}],"stateMutability":"view"},{"type":"function","name":"totalSupply","inputs":[],"outputs":[{"name":"","type":"uint256","internalType":"uint256"}],"stateMutability":"view"},{"type":"function","name":"transfer","inputs":[{"name":"to","type":"address","internalType":"address"},{"name":"value","type":"uint256","internalType":"uint256"}],"outputs":[{"name":"","type":"bool","internalType":"bool"}],"stateMutability":"nonpayable"},{"type":"function","name":"transferFrom","inputs":[{"name":"from","type":"address","internalType":"address"},{"name":"to","type":"address","internalType":"address"},{"name":"value","type":"uint256","internalType":"uint256"}],"outputs":[{"name":"","type":"bool","internalType":"bool"}],"stateMutability":"nonpayable"},{"type":"function","name":"transferOwnership","inputs":[{"name":"newOwner","type":"address","internalType":"address"}],"outputs":[],"stateMutability":"nonpayable"},{"type":"event","name":"Approval","inputs":[{"name":"owner","type":"address","indexed":true,"internalType":"address"},{"name":"spender","type":"address","indexed":true,"internalType":"address"},{"name":"value","type":"uint256","indexed":false,"internalType":"uint256"}],"anonymous":false},{"type":"event","name":"OracleAddressUpdated","inputs":[{"name":"newOracleAddress","type":"address","indexed":true,"internalType":"address"}],"anonymous":false},{"type":"event","name":"OwnershipTransferred","inputs":[{"name":"previousOwner","type":"address","indexed":true,"internalType":"address"},{"name":"newOwner","type":"address","indexed":true,"internalType":"address"}],"anonymous":false},{"type":"event","name":"Transfer","inputs":[{"name":"from","type":"address","indexed":true,"internalType":"address"},{"name":"to","type":"address","indexed":true,"internalType":"address"},{"name":"value","type":"uint256","indexed":false,"internalType":"uint256"}],"anonymous":false},{"type":"error","name":"ERC20InsufficientAllowance","inputs":[{"name":"spender","type":"address","internalType":"address"},{"name":"allowance","type":"uint256","internalType":"uint256"},{"name":"needed","type":"uint256","internalType":"uint256"}]},{"type":"error","name":"ERC20InsufficientBalance","inputs":[{"name":"sender","type":"address","internalType":"address"},{"name":"balance","type":"uint256","internalType":"uint256"},{"name":"needed","type":"uint256","internalType":"uint256"}]},{"type":"error","name":"ERC20InvalidApprover","inputs":[{"name":"approver","type":"address","internalType":"address"}]},{"type":"error","name":"ERC20InvalidReceiver","inputs":[{"name":"receiver","type":"address","internalType":"address"}]},{"type":"error","name":"ERC20InvalidSender","inputs":[{"name":"sender","type":"address","internalType":"address"}]},{"type":"error","name":"ERC20InvalidSpender","inputs":[{"name":"spender","type":"address","internalType":"address"}]},{"type":"error","name":"OwnableInvalidOwner","inputs":[{"name":"owner","type":"address","internalType":"address"}]},{"type":"error","name":"OwnableUnauthorizedAccount","inputs":[{"name":"account","type":"address","internalType":"address"}]}],"bytecode":{"object":"0x608060405234801561000f575f5ffd5b50604051611c01380380611c0183398181016040528101906100319190610315565b336040518060400160405280600a81526020017f476f6c6420546f6b656e000000000000000000000000000000000000000000008152506040518060400160405280600381526020017f474c44000000000000000000000000000000000000000000000000000000000081525081600390816100ad919061057d565b5080600490816100bd919061057d565b5050505f73ffffffffffffffffffffffffffffffffffffffff168173ffffffffffffffffffffffffffffffffffffffff1603610130575f6040517f1e4fbdf7000000000000000000000000000000000000000000000000000000008152600401610127919061065b565b60405180910390fd5b61013f816101f460201b60201c565b505f73ffffffffffffffffffffffffffffffffffffffff168173ffffffffffffffffffffffffffffffffffffffff16036101ae576040517f08c379a00000000000000000000000000000000000000000000000000000000081526004016101a5906106f4565b60405180910390fd5b8060065f6101000a81548173ffffffffffffffffffffffffffffffffffffffff021916908373ffffffffffffffffffffffffffffffffffffffff16021790555050610712565b5f60055f9054906101000a900473ffffffffffffffffffffffffffffffffffffffff1690508160055f6101000a81548173ffffffffffffffffffffffffffffffffffffffff021916908373ffffffffffffffffffffffffffffffffffffffff1602179055508173ffffffffffffffffffffffffffffffffffffffff168173ffffffffffffffffffffffffffffffffffffffff167f8be0079c531659141344cd1fd0a4f28419497f9722a3daafe3b4186f6b6457e060405160405180910390a35050565b5f5ffd5b5f73ffffffffffffffffffffffffffffffffffffffff82169050919050565b5f6102e4826102bb565b9050919050565b6102f4816102da565b81146102fe575f5ffd5b50565b5f8151905061030f816102eb565b92915050565b5f6020828403121561032a576103296102b7565b5b5f61033784828501610301565b91505092915050565b5f81519050919050565b7f4e487b71000000000000000000000000000000000000000000000000000000005f52604160045260245ffd5b7f4e487b71000000000000000000000000000000000000000000000000000000005f52602260045260245ffd5b5f60028204905060018216806103bb57607f821691505b6020821081036103ce576103cd610377565b5b50919050565b5f819050815f5260205f209050919050565b5f6020601f8301049050919050565b5f82821b905092915050565b5f600883026104307fffffffffffffffffffffffffffffffffffffffffffffffffffffffffffffffff826103f5565b61043a86836103f5565b95508019841693508086168417925050509392505050565b5f819050919050565b5f819050919050565b5f61047e61047961047484610452565b61045b565b610452565b9050919050565b5f819050919050565b61049783610464565b6104ab6104a382610485565b848454610401565b825550505050565b5f5f905090565b6104c26104b3565b6104cd81848461048e565b505050565b5b818110156104f0576104e55f826104ba565b6001810190506104d3565b5050565b601f82111561053557610506816103d4565b61050f846103e6565b8101602085101561051e578190505b61053261052a856103e6565b8301826104d2565b50505b505050565b5f82821c905092915050565b5f6105555f198460080261053a565b1980831691505092915050565b5f61056d8383610546565b9150826002028217905092915050565b61058682610340565b67ffffffffffffffff81111561059f5761059e61034a565b5b6105a982546103a4565b6105b48282856104f4565b5f60209050601f8311600181146105e5575f84156105d3578287015190505b6105dd8582610562565b865550610644565b601f1984166105f3866103d4565b5f5b8281101561061a578489015182556001820191506020850194506020810190506105f5565b868310156106375784890151610633601f891682610546565b8355505b6001600288020188555050505b505050505050565b610655816102da565b82525050565b5f60208201905061066e5f83018461064c565b92915050565b5f82825260208201905092915050565b7f476f6c64546f6b656e3a20496e76616c6964206f7261636c65206164647265735f8201527f7300000000000000000000000000000000000000000000000000000000000000602082015250565b5f6106de602183610674565b91506106e982610684565b604082019050919050565b5f6020820190508181035f83015261070b816106d2565b9050919050565b6114e28061071f5f395ff3fe608060405234801561000f575f5ffd5b50600436106100fe575f3560e01c80634c69c00f1161009557806395d89b411161006457806395d89b4114610288578063a9059cbb146102a6578063dd62ed3e146102d6578063f2fde38b14610306576100fe565b80634c69c00f1461021457806370a0823114610230578063715018a6146102605780638da5cb5b1461026a576100fe565b80632f7e177e116100d15780632f7e177e1461019e578063313ce567146101bc57806338b68a92146101da57806340c10f19146101f8576100fe565b806306fdde0314610102578063095ea7b31461012057806318160ddd1461015057806323b872dd1461016e575b5f5ffd5b61010a610322565b6040516101179190610fd3565b60405180910390f35b61013a60048036038101906101359190611084565b6103b2565b60405161014791906110dc565b60405180910390f35b6101586103d4565b6040516101659190611104565b60405180910390f35b6101886004803603810190610183919061111d565b6103dd565b60405161019591906110dc565b60405180910390f35b6101a661040b565b6040516101b39190611185565b60405180910390f35b6101c461049f565b6040516101d191906111b9565b60405180910390f35b6101e26104a7565b6040516101ef919061122d565b60405180910390f35b610212600480360381019061020d9190611084565b6104cc565b005b61022e60048036038101906102299190611246565b6104e2565b005b61024a60048036038101906102459190611246565b6105de565b6040516102579190611104565b60405180910390f35b610268610623565b005b610272610636565b60405161027f9190611280565b60405180910390f35b61029061065e565b60405161029d9190610fd3565b60405180910390f35b6102c060048036038101906102bb9190611084565b6106ee565b6040516102cd91906110dc565b60405180910390f35b6102f060048036038101906102eb9190611299565b610710565b6040516102fd9190611104565b60405180910390f35b610320600480360381019061031b9190611246565b610792565b005b60606003805461033190611304565b80601f016020809104026020016040519081016040528092919081815260200182805461035d90611304565b80156103a85780601f1061037f576101008083540402835291602001916103a8565b820191905f5260205f20905b81548152906001019060200180831161038b57829003601f168201915b5050505050905090565b5f5f6103bc610816565b90506103c981858561081d565b600191505092915050565b5f600254905090565b5f5f6103e7610816565b90506103f485828561082f565b6103ff8585856108c2565b60019150509392505050565b5f60065f9054906101000a900473ffffffffffffffffffffffffffffffffffffffff1673ffffffffffffffffffffffffffffffffffffffff16638e15f4736040518163ffffffff1660e01b8152600401602060405180830381865afa158015610476573d5f5f3e3d5ffd5b505050506040513d601f19601f8201168201806040525081019061049a919061135e565b905090565b5f6012905090565b60065f9054906101000a900473ffffffffffffffffffffffffffffffffffffffff1681565b6104d46109b2565b6104de8282610a39565b5050565b6104ea6109b2565b5f73ffffffffffffffffffffffffffffffffffffffff168173ffffffffffffffffffffffffffffffffffffffff1603610558576040517f08c379a000000000000000000000000000000000000000000000000000000000815260040161054f906113f9565b60405180910390fd5b8060065f6101000a81548173ffffffffffffffffffffffffffffffffffffffff021916908373ffffffffffffffffffffffffffffffffffffffff1602179055508073ffffffffffffffffffffffffffffffffffffffff167f107a9fafffb7ac890f780879e423760c9ffea8dcee8045681f40f542aede2cb860405160405180910390a250565b5f5f5f8373ffffffffffffffffffffffffffffffffffffffff1673ffffffffffffffffffffffffffffffffffffffff1681526020019081526020015f20549050919050565b61062b6109b2565b6106345f610ab8565b565b5f60055f9054906101000a900473ffffffffffffffffffffffffffffffffffffffff16905090565b60606004805461066d90611304565b80601f016020809104026020016040519081016040528092919081815260200182805461069990611304565b80156106e45780601f106106bb576101008083540402835291602001916106e4565b820191905f5260205f20905b8154815290600101906020018083116106c757829003601f168201915b5050505050905090565b5f5f6106f8610816565b90506107058185856108c2565b600191505092915050565b5f60015f8473ffffffffffffffffffffffffffffffffffffffff1673ffffffffffffffffffffffffffffffffffffffff1681526020019081526020015f205f8373ffffffffffffffffffffffffffffffffffffffff1673ffffffffffffffffffffffffffffffffffffffff1681526020019081526020015f2054905092915050565b61079a6109b2565b5f73ffffffffffffffffffffffffffffffffffffffff168173ffffffffffffffffffffffffffffffffffffffff160361080a575f6040517f1e4fbdf70000000000000000000000000000000000000000000000000000000081526004016108019190611280565b60405180910390fd5b61081381610ab8565b50565b5f33905090565b61082a8383836001610b7b565b505050565b5f61083a8484610710565b90507fffffffffffffffffffffffffffffffffffffffffffffffffffffffffffffffff8110156108bc57818110156108ad578281836040517ffb8f41b20000000000000000000000000000000000000000000000000000000081526004016108a493929190611417565b60405180910390fd5b6108bb84848484035f610b7b565b5b50505050565b5f73ffffffffffffffffffffffffffffffffffffffff168373ffffffffffffffffffffffffffffffffffffffff1603610932575f6040517f96c6fd1e0000000000000000000000000000000000000000000000000000000081526004016109299190611280565b60405180910390fd5b5f73ffffffffffffffffffffffffffffffffffffffff168273ffffffffffffffffffffffffffffffffffffffff16036109a2575f6040517fec442f050000000000000000000000000000000000000000000000000000000081526004016109999190611280565b60405180910390fd5b6109ad838383610d4a565b505050565b6109ba610816565b73ffffffffffffffffffffffffffffffffffffffff166109d8610636565b73ffffffffffffffffffffffffffffffffffffffff1614610a37576109fb610816565b6040517f118cdaa7000000000000000000000000000000000000000000000000000000008152600401610a2e9190611280565b60405180910390fd5b565b5f73ffffffffffffffffffffffffffffffffffffffff168273ffffffffffffffffffffffffffffffffffffffff1603610aa9575f6040517fec442f05000000000000000000000000000000000000000000000000000000008152600401610aa09190611280565b60405180910390fd5b610ab45f8383610d4a565b5050565b5f60055f9054906101000a900473ffffffffffffffffffffffffffffffffffffffff1690508160055f6101000a81548173ffffffffffffffffffffffffffffffffffffffff021916908373ffffffffffffffffffffffffffffffffffffffff1602179055508173ffffffffffffffffffffffffffffffffffffffff168173ffffffffffffffffffffffffffffffffffffffff167f8be0079c531659141344cd1fd0a4f28419497f9722a3daafe3b4186f6b6457e060405160405180910390a35050565b5f73ffffffffffffffffffffffffffffffffffffffff168473ffffffffffffffffffffffffffffffffffffffff1603610beb575f6040517fe602df05000000000000000000000000000000000000000000000000000000008152600401610be29190611280565b60405180910390fd5b5f73ffffffffffffffffffffffffffffffffffffffff168373ffffffffffffffffffffffffffffffffffffffff1603610c5b575f6040517f94280d62000000000000000000000000000000000000000000000000000000008152600401610c529190611280565b60405180910390fd5b8160015f8673ffffffffffffffffffffffffffffffffffffffff1673ffffffffffffffffffffffffffffffffffffffff1681526020019081526020015f205f8573ffffffffffffffffffffffffffffffffffffffff1673ffffffffffffffffffffffffffffffffffffffff1681526020019081526020015f20819055508015610d44578273ffffffffffffffffffffffffffffffffffffffff168473ffffffffffffffffffffffffffffffffffffffff167f8c5be1e5ebec7d5bd14f71427d1e84f3dd0314c0f7b2291e5b200ac8c7c3b92584604051610d3b9190611104565b60405180910390a35b50505050565b5f73ffffffffffffffffffffffffffffffffffffffff168373ffffffffffffffffffffffffffffffffffffffff1603610d9a578060025f828254610d8e9190611479565b92505081905550610e68565b5f5f5f8573ffffffffffffffffffffffffffffffffffffffff1673ffffffffffffffffffffffffffffffffffffffff1681526020019081526020015f2054905081811015610e23578381836040517fe450d38c000000000000000000000000000000000000000000000000000000008152600401610e1a93929190611417565b60405180910390fd5b8181035f5f8673ffffffffffffffffffffffffffffffffffffffff1673ffffffffffffffffffffffffffffffffffffffff1681526020019081526020015f2081905550505b5f73ffffffffffffffffffffffffffffffffffffffff168273ffffffffffffffffffffffffffffffffffffffff1603610eaf578060025f8282540392505081905550610ef9565b805f5f8473ffffffffffffffffffffffffffffffffffffffff1673ffffffffffffffffffffffffffffffffffffffff1681526020019081526020015f205f82825401925050819055505b8173ffffffffffffffffffffffffffffffffffffffff168373ffffffffffffffffffffffffffffffffffffffff167fddf252ad1be2c89b69c2b068fc378daa952ba7f163c4a11628f55a4df523b3ef83604051610f569190611104565b60405180910390a3505050565b5f81519050919050565b5f82825260208201905092915050565b8281835e5f83830152505050565b5f601f19601f8301169050919050565b5f610fa582610f63565b610faf8185610f6d565b9350610fbf818560208601610f7d565b610fc881610f8b565b840191505092915050565b5f6020820190508181035f830152610feb8184610f9b565b905092915050565b5f5ffd5b5f73ffffffffffffffffffffffffffffffffffffffff82169050919050565b5f61102082610ff7565b9050919050565b61103081611016565b811461103a575f5ffd5b50565b5f8135905061104b81611027565b92915050565b5f819050919050565b61106381611051565b811461106d575f5ffd5b50565b5f8135905061107e8161105a565b92915050565b5f5f6040838503121561109a57611099610ff3565b5b5f6110a78582860161103d565b92505060206110b885828601611070565b9150509250929050565b5f8115159050919050565b6110d6816110c2565b82525050565b5f6020820190506110ef5f8301846110cd565b92915050565b6110fe81611051565b82525050565b5f6020820190506111175f8301846110f5565b92915050565b5f5f5f6060848603121561113457611133610ff3565b5b5f6111418682870161103d565b93505060206111528682870161103d565b925050604061116386828701611070565b9150509250925092565b5f819050919050565b61117f8161116d565b82525050565b5f6020820190506111985f830184611176565b92915050565b5f60ff82169050919050565b6111b38161119e565b82525050565b5f6020820190506111cc5f8301846111aa565b92915050565b5f819050919050565b5f6111f56111f06111eb84610ff7565b6111d2565b610ff7565b9050919050565b5f611206826111db565b9050919050565b5f611217826111fc565b9050919050565b6112278161120d565b82525050565b5f6020820190506112405f83018461121e565b92915050565b5f6020828403121561125b5761125a610ff3565b5b5f6112688482850161103d565b91505092915050565b61127a81611016565b82525050565b5f6020820190506112935f830184611271565b92915050565b5f5f604083850312156112af576112ae610ff3565b5b5f6112bc8582860161103d565b92505060206112cd8582860161103d565b9150509250929050565b7f4e487b71000000000000000000000000000000000000000000000000000000005f52602260045260245ffd5b5f600282049050600182168061131b57607f821691505b60208210810361132e5761132d6112d7565b5b50919050565b61133d8161116d565b8114611347575f5ffd5b50565b5f8151905061135881611334565b92915050565b5f6020828403121561137357611372610ff3565b5b5f6113808482850161134a565b91505092915050565b7f476f6c64546f6b656e3a20496e76616c6964206e6577206f7261636c652061645f8201527f6472657373000000000000000000000000000000000000000000000000000000602082015250565b5f6113e3602583610f6d565b91506113ee82611389565b604082019050919050565b5f6020820190508181035f830152611410816113d7565b9050919050565b5f60608201905061142a5f830186611271565b61143760208301856110f5565b61144460408301846110f5565b949350505050565b7f4e487b71000000000000000000000000000000000000000000000000000000005f52601160045260245ffd5b5f61148382611051565b915061148e83611051565b92508282019050808211156114a6576114a561144c565b5b9291505056fea2646970667358221220a0865da6531793d4208967187340789beb02a40675fac96c5f76abd3295b494464736f6c634300081c0033","linkReferences":{}},"methodIdentifiers":{"allowance(address,address)":"dd62ed3e","approve(address,uint256)":"095ea7b3","balanceOf(address)":"70a08231","decimals()":"313ce567","getLatestGoldPrice()":"2f7e177e","goldPriceOracle()":"38b68a92","mint(address,uint256)":"40c10f19","name()":"06fdde03","owner()":"8da5cb5b","renounceOwnership()":"715018a6","setOracleAddress(address)":"4c69c00f","symbol()":"95d89b41","totalSupply()":"18160ddd","transfer(address,uint256)":"a9059cbb","transferFrom(address,address,uint256)":"23b872dd","transferOwnership(address)":"f2fde38b"},"id":29}